{
  "_format": "hh-sol-artifact-1",
  "contractName": "ElectionVoting",
  "sourceName": "contracts/ElectionVoting.sol",
  "abi": [
    {
      "anonymous": false,
      "inputs": [
        {
          "indexed": true,
          "internalType": "address",
          "name": "voter",
          "type": "address"
        },
        {
          "indexed": false,
          "internalType": "uint256",
          "name": "epicHash",
          "type": "uint256"
        },
        {
          "indexed": false,
          "internalType": "uint256",
          "name": "candidateId",
          "type": "uint256"
        },
        {
          "indexed": false,
          "internalType": "uint256",
          "name": "wardId",
          "type": "uint256"
        }
      ],
      "name": "VoteCasted",
      "type": "event"
    },
    {
      "inputs": [
        {
          "internalType": "uint256",
          "name": "",
          "type": "uint256"
        }
      ],
      "name": "candidates",
      "outputs": [
        {
          "internalType": "uint256",
          "name": "id",
          "type": "uint256"
        },
        {
          "internalType": "string",
          "name": "name",
          "type": "string"
        },
        {
          "internalType": "uint256",
          "name": "voteCount",
          "type": "uint256"
        }
      ],
      "stateMutability": "view",
      "type": "function"
    },
    {
      "inputs": [
        {
          "internalType": "uint256",
          "name": "",
          "type": "uint256"
        }
      ],
      "name": "hasVotedByEpic",
      "outputs": [
        {
          "internalType": "bool",
          "name": "",
          "type": "bool"
        }
      ],
      "stateMutability": "view",
      "type": "function"
    },
    {
      "inputs": [
        {
          "internalType": "uint256",
          "name": "_candidateId",
          "type": "uint256"
        },
        {
          "internalType": "string",
          "name": "_name",
          "type": "string"
        }
      ],
      "name": "setCandidate",
      "outputs": [],
      "stateMutability": "nonpayable",
      "type": "function"
    },
    {
      "inputs": [
        {
          "internalType": "uint256",
          "name": "_epicHash",
          "type": "uint256"
        },
        {
          "internalType": "uint256",
          "name": "_candidateId",
          "type": "uint256"
        },
        {
          "internalType": "uint256",
          "name": "_wardId",
          "type": "uint256"
        }
      ],
      "name": "vote",
      "outputs": [],
      "stateMutability": "nonpayable",
      "type": "function"
    }
  ],
  "bytecode": "0x608060405234801561001057600080fd5b50610c08806100206000396000f3fe608060405234801561001057600080fd5b506004361061004c5760003560e01c80633477ee2e146100515780638a6655d6146100835780639c9d5dea1461009f578063b93b3511146100bb575b600080fd5b61006b60048036038101906100669190610469565b6100eb565b60405161007a93929190610535565b60405180910390f35b61009d60048036038101906100989190610573565b61019d565b005b6100b960048036038101906100b4919061062b565b61034f565b005b6100d560048036038101906100d09190610469565b610409565b6040516100e291906106a6565b60405180910390f35b6001602052806000526040600020600091509050806000015490806001018054610114906106f0565b80601f0160208091040260200160405190810160405280929190818152602001828054610140906106f0565b801561018d5780601f106101625761010080835404028352916020019161018d565b820191906000526020600020905b81548152906001019060200180831161017057829003601f168201915b5050505050908060020154905083565b60008084815260200190815260200160002060009054906101000a900460ff16156101fd576040517f08c379a00000000000000000000000000000000000000000000000000000000081526004016101f490610793565b60405180910390fd5b60008203610240576040517f08c379a0000000000000000000000000000000000000000000000000000000008152600401610237906107ff565b60405180910390fd5b60008303610283576040517f08c379a000000000000000000000000000000000000000000000000000000000815260040161027a9061086b565b60405180910390fd5b600060016000848152602001908152602001600020905060008160000154036102b0578281600001819055505b60018160020160008282546102c591906108ba565b92505081905550600160008086815260200190815260200160002060006101000a81548160ff0219169083151502179055503373ffffffffffffffffffffffffffffffffffffffff167fdeab8ee83eba63bd94fc0587073ddbf10ed10cffe1e93c8b63411b7fa3ec0214858585604051610341939291906108ee565b60405180910390a250505050565b604051806060016040528084815260200183838080601f016020809104026020016040519081016040528093929190818152602001838380828437600081840152601f19601f8201169050808301925050505050505081526020016001600086815260200190815260200160002060020154815250600160008581526020019081526020016000206000820151816000015560208201518160010190816103f69190610b00565b5060408201518160020155905050505050565b60006020528060005260406000206000915054906101000a900460ff1681565b600080fd5b600080fd5b6000819050919050565b61044681610433565b811461045157600080fd5b50565b6000813590506104638161043d565b92915050565b60006020828403121561047f5761047e610429565b5b600061048d84828501610454565b91505092915050565b61049f81610433565b82525050565b600081519050919050565b600082825260208201905092915050565b60005b838110156104df5780820151818401526020810190506104c4565b60008484015250505050565b6000601f19601f8301169050919050565b6000610507826104a5565b61051181856104b0565b93506105218185602086016104c1565b61052a816104eb565b840191505092915050565b600060608201905061054a6000830186610496565b818103602083015261055c81856104fc565b905061056b6040830184610496565b949350505050565b60008060006060848603121561058c5761058b610429565b5b600061059a86828701610454565b93505060206105ab86828701610454565b92505060406105bc86828701610454565b9150509250925092565b600080fd5b600080fd5b600080fd5b60008083601f8401126105eb576105ea6105c6565b5b8235905067ffffffffffffffff811115610608576106076105cb565b5b602083019150836001820283011115610624576106236105d0565b5b9250929050565b60008060006040848603121561064457610643610429565b5b600061065286828701610454565b935050602084013567ffffffffffffffff8111156106735761067261042e565b5b61067f868287016105d5565b92509250509250925092565b60008115159050919050565b6106a08161068b565b82525050565b60006020820190506106bb6000830184610697565b92915050565b7f4e487b7100000000000000000000000000000000000000000000000000000000600052602260045260246000fd5b6000600282049050600182168061070857607f821691505b60208210810361071b5761071a6106c1565b5b50919050565b7f546869732045504943206e756d6265722068617320616c726561647920766f7460008201527f6564000000000000000000000000000000000000000000000000000000000000602082015250565b600061077d6022836104b0565b915061078882610721565b604082019050919050565b600060208201905081810360008301526107ac81610770565b9050919050565b7f496e76616c69642063616e646964617465000000000000000000000000000000600082015250565b60006107e96011836104b0565b91506107f4826107b3565b602082019050919050565b60006020820190508181036000830152610818816107dc565b9050919050565b7f496e76616c696420455049432068617368000000000000000000000000000000600082015250565b60006108556011836104b0565b91506108608261081f565b602082019050919050565b6000602082019050818103600083015261088481610848565b9050919050565b7f4e487b7100000000000000000000000000000000000000000000000000000000600052601160045260246000fd5b60006108c582610433565b91506108d083610433565b92508282019050808211156108e8576108e761088b565b5b92915050565b60006060820190506109036000830186610496565b6109106020830185610496565b61091d6040830184610496565b949350505050565b7f4e487b7100000000000000000000000000000000000000000000000000000000600052604160045260246000fd5b60008190508160005260206000209050919050565b60006020601f8301049050919050565b600082821b905092915050565b6000600883026109b67fffffffffffffffffffffffffffffffffffffffffffffffffffffffffffffffff82610979565b6109c08683610979565b95508019841693508086168417925050509392505050565b6000819050919050565b60006109fd6109f86109f384610433565b6109d8565b610433565b9050919050565b6000819050919050565b610a17836109e2565b610a2b610a2382610a04565b848454610986565b825550505050565b600090565b610a40610a33565b610a4b818484610a0e565b505050565b5b81811015610a6f57610a64600082610a38565b600181019050610a51565b5050565b601f821115610ab457610a8581610954565b610a8e84610969565b81016020851015610a9d578190505b610ab1610aa985610969565b830182610a50565b50505b505050565b600082821c905092915050565b6000610ad760001984600802610ab9565b1980831691505092915050565b6000610af08383610ac6565b9150826002028217905092915050565b610b09826104a5565b67ffffffffffffffff811115610b2257610b21610925565b5b610b2c82546106f0565b610b37828285610a73565b600060209050601f831160018114610b6a5760008415610b58578287015190505b610b628582610ae4565b865550610bca565b601f198416610b7886610954565b60005b82811015610ba057848901518255600182019150602085019450602081019050610b7b565b86831015610bbd5784890151610bb9601f891682610ac6565b8355505b6001600288020188555050505b50505050505056fea2646970667358221220aa745e0807fa19763ceb85ac4e3af56afb9f39586ccd467d49e5e92e6efed86c64736f6c63430008180033",
  "linkReferences": {},
  "deployedLinkReferences": {}
}