{
  "_format": "hh-sol-artifact-1",
  "contractName": "ElectionVoting",
  "sourceName": "contracts/ElectionVoting.sol",
  "abi": [
    {
      "anonymous": false,
      "inputs": [
        {
          "indexed": true,
          "internalType": "address",
          "name": "voter",
          "type": "address"
        },
        {
          "indexed": false,
          "internalType": "uint256",
          "name": "candidateId",
          "type": "uint256"
        },
        {
          "indexed": false,
          "internalType": "uint256",
          "name": "wardId",
          "type": "uint256"
        }
      ],
      "name": "VoteCasted",
      "type": "event"
    },
    {
      "inputs": [
        {
          "internalType": "uint256",
          "name": "",
          "type": "uint256"
        }
      ],
      "name": "candidates",
      "outputs": [
        {
          "internalType": "uint256",
          "name": "id",
          "type": "uint256"
        },
        {
          "internalType": "string",
          "name": "name",
          "type": "string"
        },
        {
          "internalType": "uint256",
          "name": "voteCount",
          "type": "uint256"
        }
      ],
      "stateMutability": "view",
      "type": "function"
    },
    {
      "inputs": [
        {
          "internalType": "address",
          "name": "",
          "type": "address"
        }
      ],
      "name": "hasVoted",
      "outputs": [
        {
          "internalType": "bool",
          "name": "",
          "type": "bool"
        }
      ],
      "stateMutability": "view",
      "type": "function"
    },
    {
      "inputs": [
        {
          "internalType": "uint256",
          "name": "_candidateId",
          "type": "uint256"
        },
        {
          "internalType": "string",
          "name": "_name",
          "type": "string"
        }
      ],
      "name": "setCandidate",
      "outputs": [],
      "stateMutability": "nonpayable",
      "type": "function"
    },
    {
      "inputs": [
        {
          "internalType": "uint256",
          "name": "_candidateId",
          "type": "uint256"
        },
        {
          "internalType": "uint256",
          "name": "_wardId",
          "type": "uint256"
        }
      ],
      "name": "vote",
      "outputs": [],
      "stateMutability": "nonpayable",
      "type": "function"
    }
  ],
  "bytecode": "0x608060405234801561001057600080fd5b50610bf2806100206000396000f3fe608060405234801561001057600080fd5b506004361061004c5760003560e01c806309eef43e146100515780633477ee2e146100815780639c9d5dea146100b3578063b384abef146100cf575b600080fd5b61006b600480360381019061006691906104a3565b6100eb565b60405161007891906104eb565b60405180910390f35b61009b6004803603810190610096919061053c565b61010b565b6040516100aa93929190610608565b60405180910390f35b6100cd60048036038101906100c891906106ab565b6101bd565b005b6100e960048036038101906100e4919061070b565b610277565b005b60006020528060005260406000206000915054906101000a900460ff1681565b60016020528060005260406000206000915090508060000154908060010180546101349061077a565b80601f01602080910402602001604051908101604052809291908181526020018280546101609061077a565b80156101ad5780601f10610182576101008083540402835291602001916101ad565b820191906000526020600020905b81548152906001019060200180831161019057829003601f168201915b5050505050908060020154905083565b604051806060016040528084815260200183838080601f016020809104026020016040519081016040528093929190818152602001838380828437600081840152601f19601f8201169050808301925050505050505081526020016001600086815260200190815260200160002060020154815250600160008581526020019081526020016000206000820151816000015560208201518160010190816102649190610986565b5060408201518160020155905050505050565b6000803373ffffffffffffffffffffffffffffffffffffffff1673ffffffffffffffffffffffffffffffffffffffff16815260200190815260200160002060009054906101000a900460ff1615610303576040517f08c379a00000000000000000000000000000000000000000000000000000000081526004016102fa90610aa4565b60405180910390fd5b60008203610346576040517f08c379a000000000000000000000000000000000000000000000000000000000815260040161033d90610b10565b60405180910390fd5b60006001600084815260200190815260200160002090506000816000015403610373578281600001819055505b60018160020160008282546103889190610b5f565b9250508190555060016000803373ffffffffffffffffffffffffffffffffffffffff1673ffffffffffffffffffffffffffffffffffffffff16815260200190815260200160002060006101000a81548160ff0219169083151502179055503373ffffffffffffffffffffffffffffffffffffffff167fcb87df07b1c304492bd875a5c8b98672eca500939412809ea229afef1d745188848460405161042e929190610b93565b60405180910390a2505050565b600080fd5b600080fd5b600073ffffffffffffffffffffffffffffffffffffffff82169050919050565b600061047082610445565b9050919050565b61048081610465565b811461048b57600080fd5b50565b60008135905061049d81610477565b92915050565b6000602082840312156104b9576104b861043b565b5b60006104c78482850161048e565b91505092915050565b60008115159050919050565b6104e5816104d0565b82525050565b600060208201905061050060008301846104dc565b92915050565b6000819050919050565b61051981610506565b811461052457600080fd5b50565b60008135905061053681610510565b92915050565b6000602082840312156105525761055161043b565b5b600061056084828501610527565b91505092915050565b61057281610506565b82525050565b600081519050919050565b600082825260208201905092915050565b60005b838110156105b2578082015181840152602081019050610597565b60008484015250505050565b6000601f19601f8301169050919050565b60006105da82610578565b6105e48185610583565b93506105f4818560208601610594565b6105fd816105be565b840191505092915050565b600060608201905061061d6000830186610569565b818103602083015261062f81856105cf565b905061063e6040830184610569565b949350505050565b600080fd5b600080fd5b600080fd5b60008083601f84011261066b5761066a610646565b5b8235905067ffffffffffffffff8111156106885761068761064b565b5b6020830191508360018202830111156106a4576106a3610650565b5b9250929050565b6000806000604084860312156106c4576106c361043b565b5b60006106d286828701610527565b935050602084013567ffffffffffffffff8111156106f3576106f2610440565b5b6106ff86828701610655565b92509250509250925092565b600080604083850312156107225761072161043b565b5b600061073085828601610527565b925050602061074185828601610527565b9150509250929050565b7f4e487b7100000000000000000000000000000000000000000000000000000000600052602260045260246000fd5b6000600282049050600182168061079257607f821691505b6020821081036107a5576107a461074b565b5b50919050565b7f4e487b7100000000000000000000000000000000000000000000000000000000600052604160045260246000fd5b60008190508160005260206000209050919050565b60006020601f8301049050919050565b600082821b905092915050565b60006008830261083c7fffffffffffffffffffffffffffffffffffffffffffffffffffffffffffffffff826107ff565b61084686836107ff565b95508019841693508086168417925050509392505050565b6000819050919050565b600061088361087e61087984610506565b61085e565b610506565b9050919050565b6000819050919050565b61089d83610868565b6108b16108a98261088a565b84845461080c565b825550505050565b600090565b6108c66108b9565b6108d1818484610894565b505050565b5b818110156108f5576108ea6000826108be565b6001810190506108d7565b5050565b601f82111561093a5761090b816107da565b610914846107ef565b81016020851015610923578190505b61093761092f856107ef565b8301826108d6565b50505b505050565b600082821c905092915050565b600061095d6000198460080261093f565b1980831691505092915050565b6000610976838361094c565b9150826002028217905092915050565b61098f82610578565b67ffffffffffffffff8111156109a8576109a76107ab565b5b6109b2825461077a565b6109bd8282856108f9565b600060209050601f8311600181146109f057600084156109de578287015190505b6109e8858261096a565b865550610a50565b601f1984166109fe866107da565b60005b82811015610a2657848901518255600182019150602085019450602081019050610a01565b86831015610a435784890151610a3f601f89168261094c565b8355505b6001600288020188555050505b505050505050565b7f416c726561647920766f74656400000000000000000000000000000000000000600082015250565b6000610a8e600d83610583565b9150610a9982610a58565b602082019050919050565b60006020820190508181036000830152610abd81610a81565b9050919050565b7f496e76616c69642063616e646964617465000000000000000000000000000000600082015250565b6000610afa601183610583565b9150610b0582610ac4565b602082019050919050565b60006020820190508181036000830152610b2981610aed565b9050919050565b7f4e487b7100000000000000000000000000000000000000000000000000000000600052601160045260246000fd5b6000610b6a82610506565b9150610b7583610506565b9250828201905080821115610b8d57610b8c610b30565b5b92915050565b6000604082019050610ba86000830185610569565b610bb56020830184610569565b939250505056fea264697066735822122092e06c990fa24e9633d2772fa1401215f319fdfb00bd5e228d45e4e9814b853f64736f6c63430008180033",
  "linkReferences": {},
  "deployedLinkReferences": {}
}